:1000000012C019C018C017C016C015C014C013C044
:1000100012C011C010C00FC00EC00DC00CC00BC06C
:100020000AC009C008C011241FBECFE5D4E0DEBF5E
:10003000CDBF3BD0AEC0E4CF21E030E0082E02C0FF
:10004000220F331F0A94E2F725BB2FEF31EE44E075
:10005000215030404040E1F700C00000089521E009
:1000600030E0082E02C0220F331F0A94E2F722BBB1
:100070002FEF31EE44E0215030404040E1F700C026
:100080000000089521E030E0082E02C0220F331F47
:100090000A94E2F728BB2FEF31EE44E021503040C4
:1000A0004040E1F700C0000008958FEF81BB84BBA2
:1000B0008AEF87BB88B3856088BBB2994BC0B09983
:1000C00022C0C8E0D0E0DD233CF08FEF81BBCE0141
:1000D000C6DF11BA2197F7CFC6E0D0E0DD233CF0B0
:1000E0008FEF84BBCE01A8DF14BA2197F7CFC1E010
:1000F000D0E01C161D060CF78FEF87BBCE01C2DFC8
:1001000017BA2197F6CFB09BD8CFC0E0D0E0C63069
:10011000D1053CF48FEF84BBCE018EDF14BA21965B
:10012000F6CFC0E0D0E0C930D1053CF48FEF81BB01
:10013000CE0195DF11BA2196F6CFC1E0D0E01C16B2
:100140001D060CF0BACF8FEF87BBCE019BDF17BA2D
:100150002197F5CFB29BB1CFB0990CC0C8E0D0E0E9
:10016000DD230CF4AACF8FEF81BBCE0178DF11BA6B
:100170002197F6CFB09BA1CFC0E0D0E0C930D10528
:100180000CF09BCF8FEF81BBCE0169DF11BA2196B6
:06019000F5CFF894FFCF4B
:00000001FF
